:020000040000FA
:100000000A128A11EE2FFF0000308A007F08820753
:1000100008280A128A11342F0A128A11F92E003088
:100020008A000408840A8207003449346E34693433
:0E0030006334693461346E3464346F340034E8
:100CE4000134043400340034003400340034F5009A
:100CF4007508F40006300310F40DFF3E031D7D2E2D
:100D0400730874077F39803E0A128A1175270A1204
:100D14008A1108007E088A007F0882000A128A115C
:100D24008C260A128A118000840A04087D0603199D
:100D34000034FF0A0319FE0A902EAE2EC730F200CB
:100D4400A32EF20BA22EA62EA72E0130F002003005
:100D5400031CF103F102AE2E70087104031DB32EBF
:100D6400B42EA02EB52E08008312031320080A12F5
:100D74008A1103200A128A110130F8007808F6005B
:100D84008312031321080A128A1103200A128A11FA
:100D9400CA2E0A128A110028F100831203130816BE
:100DA4007108F00004300310F00CFF3E031DD52E33
:100DB40008087006F0397006880088120D30F000BB
:100DC400F00BE22E83120313881608160F307105F8
:100DD400F00008087006F0397006880088120D309B
:100DE400F000F00BF32E8312031388160800F301AE
:100DF40000300A128A1179260A128A11262F7608DF
:100E040084000A128A110F200A128A110A3A031D59
:100E14000C2F0D2F152FF30101300A128A11792698
:100E24000A128A11152F760884000A128A110F20DB
:100E34000A128A110A128A11CE260A128A11013064
:100E4400F7007708F607262F760884000A128A111D
:100E54000F200A128A11003A031D312F322F012F5D
:100E6400332F08006430F0000030F1000A128A11B8
:100E74009F260A128A11831603130810881008117A
:100E8400881108128812081788176430F00000309F
:100E9400F1000A128A119F260A128A11831203137F
:100EA400881628300A128A1175270A128A110C3002
:100EB4000A128A1175270A128A1101300A128A113C
:100EC40075270A128A1102300A128A1175270A122A
:100ED4008A116430F0000030F1000A128A119F2652
:100EE4000A128A110800F20083120313081272080E
:100EF400F00004300310F00CFF3E031D7C2F0808A3
:100F04007006F039700688008812720303198B2F5B
:100F14008C2F932F02307206031D912F922F9D2F39
:100F2400932F0330F1009730F000F00B972FF10B63
:100F3400972F9C2FA22F0D30F000F00B9F2FA22F84
:100F4400831203138816F0307205F0002030700607
:100F5400031DAD2FAE2FC52F08127208F000043008
:100F64000310F00CFF3E031DB22F08087006F03981
:100F74007006880088120D30F000F00BBF2F83122A
:100F840003138816C52F08120F307205F0000808E5
:100F94007006F03970068800881272030319D32F83
:100FA400D42FDB2F02307206031DD92FDA2FE52F41
:100FB400DB2F0330F1009730F000F00BDF2FF10B43
:100FC400DF2FE42FEA2F0D30F000F00BE72FEA2F8C
:100FD400831203138816080083132730FD0006309C
:100FE400FE007230FF00203084000A128A1190261D
:0C0FF4000A128A1183010A128A11B62E1B
:04400E00D4E0FFFFFC
:00000001FF
